:1000A40010080001000200040008001000200040B5
:0200B4000080CA
:10008F00EF1FAC0670011E4C600A7D027CEFDCFE98
:04009F00DDFC80EC18
:0100A300223A
:1000B700E4F5A020B00575A00180F8E4F5A080F371
:03000000020003F8
:0C000300787FE4F6D8FD75811702004AF2
:10000F000200B7E493A3F8E493A34003F68001F250
:10001F0008DFF48029E493A3F85407240CC8C333F2
:10002F00C4540F4420C8834004F456800146F6DFC1
:10003F00E4800B01020408102040809000A4E47EAD
:10004F00019360BCA3FF543F30E509541FFEE493B6
:10005F00A360010ECF54C025E060A840B8E493A37D
:10006F00FAE493A3F8E493A3C8C582C8CAC583CAA8
:10007F00F0A3C8C582C8CAC583CADFE9DEE780BE60
:0100B6000049
:00000001FF
