:1000D3001008000100020004000800100020004086
:0200E30000809B
:1000BE00EF1FAC0670011E4C600A7D027CEFDCFE69
:0400CE00DDFC80ECE9
:0100D200220B
:03008F00E4F5A0F5
:10009200E4F518F5197FF47E011200BEE51925E09A
:1000A2002408F808E6F5A00519E51970020518C339
:0C00B2009408E5186480948040DB80D442
:03000000020003F8
:0C000300787FE4F6D8FD75811902004AF0
:10000F0002008FE493A3F8E493A34003F68001F278
:10001F0008DFF48029E493A3F85407240CC8C333F2
:10002F00C4540F4420C8834004F456800146F6DFC1
:10003F00E4800B01020408102040809000D3E47E7E
:10004F00019360BCA3FF543F30E509541FFEE493B6
:10005F00A360010ECF54C025E060A840B8E493A37D
:10006F00FAE493A3F8E493A3C8C582C8CAC583CAA8
:10007F00F0A3C8C582C8CAC583CADFE9DEE780BE60
:0100E500001A
:00000001FF
