:10004C00EF1FAC0670011E4C600A7D027CEFDCFEDB
:04005C00DDFC80EC5B
:01006000227D
:10003300E4F5A075A0017FF47E0112004C75A002C7
:090043007FF47E0112004C80EAFA
:1000030075A00112006175A00212006175A00412AF
:10001300006175A00812006175A01012006175A03F
:100023002012006175A04012006175A0800200617A
:0C006F0075A001120061E4F5A002006120
:0D006100007F047ECD7DBBDDFEDEFCDFFAFE
:01006E00226F
:0300000002007B80
:0C007B00787FE4F6D8FD758107020033A1
:00000001FF
