:0402FC00027D00007F
:0304510012051180
:100454001200038E688F69E5696402456870068539
:10046400687D85697E756E02AB7EAA7D7D017F0104
:03047400120479F6
:0204770080DB28
:1004FC00EF1FAC0670011E4C600A7D027CEFDCFE27
:04050C00DDFC80ECA6
:0105100022C8
:100300001058000100020004000800100020004006
:10031000008020200800C000F900A400B00099006F
:1003200092008200F8008000900088008300C600E0
:10033000A10086008E202028003F0006005B004FB1
:100340000066006D007D0007007F006F0077007C75
:100350000039005E007900711048000000010002C1
:0A036000000300040005000600077A
:10036B00EE7053EFB40800504D90037BF8282873C0
:10037B0002039302039702039F0203A30203AB0240
:10038B0003AF0203B70203BBC2A08002D2A0C2A17B
:10039B00C2A28022C2A08002D2A0D2A1C2A2801689
:1003AB00C2A08002D2A0C2A1D2A2800AC2A08002A7
:1003BB00D2A0D2A1D2A2ED25E02428F808E6F58040
:0B03CB007F017E001204FCE4F580229C
:06052500C2A58F80D2A7E1
:08052B007F027EEFDEFEDFFC23
:0105330022A5
:0A053400C2A6120525C2A702052B7E
:1004C000CFCDCFCECCCE12021B7C007D0A12021BF8
:0404D000ED2430FFE8
:0A04D400D2A6120525C2A702052BCF
:1004DE00AE07EEFB7A0064017004ED148009EB6444
:0E04EE00024A7009ED243F4480FF12053422BB
:100511007F381205347F0C1205347F061205347FB3
:04052100010205349A
:0A053E00AC031204DEAF040204D483
:06049D008B7A8A7B897C4A
:1004A3001204DEE4FDAB7AAA7BA97C8D82758300FE
:0C04B3001201DCFF60061204D40D80E989
:0104BF00221A
:0A042000EF24FFFDEE34FFFC7F0A1D
:08042A008E6F8F708C718D72D2
:100432007F017E00E4FBEBC39572E5716480F87482
:0E0442008098500AAC6FAD701202090B80E872
:010450002289
:040479008A6C8B6D91
:10047D001204DEAA6EEAFF7E00D39400748094808D
:0F048D00400D120420AC6CAD6D1204C01A80E655
:01049C00223D
:0403D6008B828A8309
:1003DA001204DEC3E58364809480400D7F2B1204EF
:1003EA00D485837885827980107F2D1204D4C3E462
:1003FA009582F579E49583F578AA77EAFF7E00D3AA
:10040A00940074809480400D120420AC78AD791267
:05041A0004C01A80E699
:01041F0022BA
:10000300E4F56AF56B75907FAF90EF647F606F7F67
:10001300147E001204FCAF90EF2485602124FE605F
:100023003314604624077056AF90EF647760F97F0E
:10003300147E001204FC756A00756B018040AF905A
:10004300EF647B60F97F147E001204FC756A00750F
:100053006B02802AAF90EF647D60F97F147E0012FB
:1000630004FC756A00756B038014AF90EF647E60C7
:10007300F97F147E001204FC756A00756B04759099
:10008300BFAF90EF64BF6068AF90EF244560212459
:10009300FE603314604624077056AF90EF64B76078
:1000A300F97F147E001204FC756A00756B058040AD
:1000B300AF90EF64BB60F97F147E001204FC756A95
:1000C30000756B06802AAF90EF64BD60F97F147EE4
:1000D300001204FC756A00756B078014AF90EF641F
:1000E300BE60F97F147E001204FC756A00756B080C
:1000F3007590DFAF90EF64DF6068AF90EF24256009
:100103002124FE603314604624077056AF90EF64D9
:10011300D760F97F147E001204FC756A00756B09C1
:100123008040AF90EF64DB60F97F147E001204FC23
:10013300756A00756B0A802AAF90EF64DD60F97F02
:10014300147E001204FC756A00756B0B8014AF906B
:10015300EF64DE60F97F147E001204FC756A00759B
:100163006B0C7590EFAF90EF64EF6068AF90EF2486
:1001730015602124FE603314604624077056AF9047
:10018300EF64E760F97F147E001204FC756A007562
:100193006B0D8040AF90EF64EB60F97F147E00122B
:1001A30004FC756A00756B0E802AAF90EF64ED60F6
:1001B300F97F147E001204FC756A00756B0F8014BE
:1001C300AF90EF64EE60F97F147E001204FC756A51
:0801D30000756B10AE6AAF6B02
:0101DB002201
:0300000002027089
:0C027000787FE4F6D8FD75817E0202B7AD
:1001DC00BB010CE58229F582E5833AF583E02250D8
:1001EC0006E92582F8E622BBFE06E92582F8E22222
:0D01FC00E58229F582E5833AF583E493223C
:10020900EF8DF0A4A8F0CF8CF0A428CE8DF0A42E09
:02021900FE22C3
:10021B00BC000BBE0029EF8DF084FFADF022E4CCC7
:10022B00F875F008EF2FFFEE33FEEC33FCEE9DEC90
:10023B00984005FCEE9DFE0FD5F0E9E4CEFD22EDD6
:10024B00F8F5F0EE8420D21CFEADF075F008EF2F20
:10025B00FFED33FD4007985006D5F0F222C398FD11
:05026B000FD5F0EA22AE
:10027C00020451E493A3F8E493A34003F68001F243
:10028C0008DFF48029E493A3F85407240CC8C33383
:10029C00C4540F4420C8834004F456800146F6DF52
:1002AC00E4800B01020408102040809002FCE47EE4
:1002BC00019360BCA3FF543F30E509541FFEE49347
:1002CC00A360010ECF54C025E060A840B8E493A30E
:1002DC00FAE493A3F8E493A3C8C582C8CAC583CA39
:1002EC00F0A3C8C582C8CAC583CADFE9DEE780BEF1
:01036A000092
:00000001FF
