:0403C1000214000022
:10019F0012033B12035812012E8E168F17E51764A8
:1001AF00014516700C7F011200037FE87E031202D7
:1001BF006BE51764024516700C7F021200037FF483
:1001CF007E0112026BE5176403451670057F03125B
:1001DF000003E5176404451670BC7F04120003800A
:0101EF00B55A
:03000B000202935B
:04029300C0E0C0D037
:10029700758A18758CFC0515E51570020514B4E808
:0C02A7000BE514B4030675140075150077
:0502B300D0D0D0E032C4
:10036F00EF1FAC0670011E4C600A7D027CEFDCFEB5
:04037F00DDFC80EC35
:010383002257
:06039800C2A58F80D2A770
:08039E007F027EEFDEFEDFFCB2
:0103A6002234
:0A03A700C2A6120398C2A702039E2B
:1002FF00CFCDCFCECCCE12004D7C007D0A12004D5B
:04030F00ED2430FFAA
:0A031300D2A6120398C2A702039EAF
:10031D00AE07EEFB7A0064017004ED148009EB6406
:0E032D00024A7009ED243F4480FF1203A7220C
:100384007F381203A77F0C1203A77F061203A77FEF
:04039400010203A7B8
:0A03B100AC0312031DAF0402031396
:0602DC008B208A2189221B
:1002E20012031DE4FDAB20AA21A9228D8275830091
:0C02F20012000EFF60061203130D80E9DD
:0102FE0022DD
:0A023A00EF24FFFDEE34FFFC7F0A05
:080244008E188F198C1A8D1B16
:10024C007F017E00E4FBEBC3951BE51A6480F87418
:0E025C008098500AAC18AD1912003B0B80E8D8
:01026A002271
:0402B8008A118B120A
:1002BC0012031DAA13EAFF7E00D39400748094806D
:0F02CC00400D12023AAC11AD121202FF1A80E679
:0102DB002200
:0401F0008B828A83F1
:1001F40012031DC3E58364809480400D7F2B12039A
:100204001385830D85820E80107F2D120313C3E4A2
:100214009582F50EE49583F50DAA0CEAFF7E00D3D2
:10022400940074809480400D12023AAC0DAD0E120D
:0502340002FF1A80E644
:0102390022A2
:10012E00E4F51CF51D20B2167F14FE12036F30B2DB
:10013E00FD7F147E0012036F751C00751D0120B328
:10014E00177F147E0012036F30B3FD7F147E0012F2
:10015E00036F751C00751D0220B4177F147E0012EC
:10016E00036F30B4FD7F147E0012036F751C007593
:10017E001D0320B5177F147E0012036F30B5FD7F6F
:10018E00147E0012036F751C00751D04AE1CAF1D8E
:01019E00223E
:10033B0075985053878053890F438920C28FD28E73
:0D034B00758BFD758DFDC2ABD2ACD2AF221B
:080003008F993099FDC299228A
:100358005389F0438901C28DD28C758A18758CFC3B
:07036800D2A9D2AFC2B922F5
:0503BB00007FE3DFFEFE
:0103C000221A
:04026B008E1C8F1D39
:10026F00E4F51EF51FC3E51F951DE51E951C5013E4
:10027F00B2A17F017E0012036F051FE51F70E60517
:03028F001E80E2EC
:010292002249
:030000000200A259
:0C00A200787FE4F6D8FD7581220200E9A9
:10000E00BB010CE58229F582E5833AF583E02250A7
:10001E0006E92582F8E622BBFE06E92582F8E222F1
:0D002E00E58229F582E5833AF583E493220B
:10003B00EF8DF0A4A8F0CF8CF0A428CE8DF0A42ED9
:02004B00FE2293
:10004D00BC000BBE0029EF8DF084FFADF022E4CC97
:10005D00F875F008EF2FFFEE33FEEC33FCEE9DEC60
:10006D00984005FCEE9DFE0FD5F0E9E4CEFD22EDA6
:10007D00F8F5F0EE8420D21CFEADF075F008EF2FF0
:10008D00FFED33FD4007985006D5F0F222C398FDE1
:05009D000FD5F0EA227E
:1000AE0002019FE493A3F8E493A34003F68001F2C8
:1000BE0008DFF48029E493A3F85407240CC8C33353
:1000CE00C4540F4420C8834004F456800146F6DF22
:1000DE00E4800B01020408102040809003C1E47EEE
:1000EE00019360BCA3FF543F30E509541FFEE49317
:1000FE00A360010ECF54C025E060A840B8E493A3DE
:10010E00FAE493A3F8E493A3C8C582C8CAC583CA08
:10011E00F0A3C8C582C8CAC583CADFE9DEE780BEC0
:0103C5000037
:00000001FF
