:0502DA00C2B5C2B6220E
:02010000A9074D
:10010200E4FDD2B5FBEBC394087480948050227E48
:10011200007401A803088005C333CE33CED8F9FF9B
:10012200E9F582EF558224FF92B7C2B6D2B60B80B0
:10013200D4E4FBEBC39408748094805023D2B6C2FB
:10014200B630B719A8037401088002C333D8FC4241
:1001520005EDD39409748094804002E4FD0B80D3B2
:04016200C2B5AF056E
:010166002276
:060097008C1C8D1DAB075F
:10009D00D2B5E4FDEDC394087480948050227E00A7
:1000AD007401A805088005C333CE33CED8F9FFEB14
:1000BD00F582EF558224FF92B7D2B6C2B60D80D429
:1000CD00E4FDEDC394087480948050247E00740187
:1000DD00A805088005C333CE33CED8F9FFE51C5EE5
:1000ED00FEE51D5F4E24FF92B7D2B6C2B60D80D28B
:0200FD00C2B58A
:0100FF0022DE
:060265001202971202DAFA
:10026B007F811201008F08EFFB7A00750D027D0173
:05027B007F011201E209
:0202800080E913
:10028200EF1FAC0670011E4C600A7D027CEFDCFEA3
:04029200DDFC80EC23
:010296002245
:0602AB00C2A58F80D2A75E
:0802B1007F027EEFDEFEDFFCA0
:0102B9002222
:0A02C600C2A61202ABC2A70202B1E9
:10022900CFCDCFCECCCE1200427C007D0A12004247
:04023900ED2430FF81
:0A023D00D2A61202ABC2A70202B162
:10024700AE07EEFB7A0064017004ED148009EB64DD
:0E025700024A7009ED243F4480FF1202C622C5
:100297007F381202C67F0C1202C67F061202C67F83
:0402A700010202C688
:0A02D000AC03120247AF0402023D26
:060206008B198A1A891B06
:10020C00120247E4FDAB19AA1AA91B8D8275830053
:0C021C00120003FF600612023D0D80E995
:0102280022B3
:0A01B100EF24FFFDEE34FFFC7F0A8F
:0801BB008E0E8F0F8C108D11C8
:1001C3007F017E00E4FBEBC39511E5106480F874B6
:0E01D3008098500AAC0EAD0F1200300B80E881
:0101E10022FB
:0401E2008A0B8B0CED
:1001E600120247AA0DEAFF7E00D394007480948021
:0F01F600400D1201B1AC0BAD0C1202291A80E6BC
:0102050022D6
:040167008B828A837A
:10016B00120247C3E58364809480400D7F2B1202FB
:10017B003D85831785821880107F2D12023DC3E4C5
:10018B009582F518E49583F517AA16EAFF7E00D33E
:10019B00940074809480400D1201B1AC17AD18120D
:0501AB0002291A80E6A4
:0101B000222C
:030000000202BA3F
:0C02BA00787FE4F6D8FD75811D02026516
:10000300BB010CE58229F582E5833AF583E02250B2
:1000130006E92582F8E622BBFE06E92582F8E222FC
:0D002300E58229F582E5833AF583E4932216
:10003000EF8DF0A4A8F0CF8CF0A428CE8DF0A42EE4
:02004000FE229E
:10004200BC000BBE0029EF8DF084FFADF022E4CCA2
:10005200F875F008EF2FFFEE33FEEC33FCEE9DEC6B
:10006200984005FCEE9DFE0FD5F0E9E4CEFD22EDB1
:10007200F8F5F0EE8420D21CFEADF075F008EF2FFB
:10008200FFED33FD4007985006D5F0F222C398FDEC
:050092000FD5F0EA2289
:00000001FF
