:10028B002028080000000000000000FF080808FFFD
:10029B0000FF89898900FF01010100FF01010100B5
:0B02AB00000000000000000000000048
:0402B7008E398F3AB3
:1002BB00E4F53BF53CAF3CEF253A2408F8E6FD7C32
:1002CB0000120328053CE53C7002053BC39408E58E
:0502DB003B940040E02F
:0102E00022FB
:10016D007D9F7C00E4FF1203287D917C007F0112AE
:10017D0003287D917C007F021203287D917C007FF6
:10018D00031203287D917C007F041203287D917C4E
:10019D00007F051203287D917C007F061203287DC8
:0801AD00F17C007F070203282A
:1001B500E4FDFCFF120328E4FDFC7F01120328E4A3
:1001C500FDFC7F02120328E4FDFC7F03120328E4F3
:1001D500FDFC7F04120328E4FDFC7F05120328E4DF
:1001E500FDFC7F061203287DFF7C007F07020328A4
:10025B00E4F537F53812040BAF38AE371202B70599
:10026B0038E538700205377F4B7E001203B7D3E5B4
:10027B00389428E537940040DFE4F537F53880D81B
:1003B700EF1FAC0670011E4C600A7D027CEFDCFE6D
:0403C700DDFC80ECED
:0103CB00220F
:0603E000C2A58F80D2A728
:0803E6007F027EEFDEFEDFFC6A
:0103EE0022EC
:0A03EF00C2A61203E0C2A70203E653
:10034700CFCDCFCECCCE1200427C007D0A12004228
:04035700ED2430FF62
:0A035B00D2A61203E0C2A70203E6D7
:10036500AE07EEFB7A0064017004ED148009EB64BE
:0E037500024A7009ED243F4480FF1203EF227C
:1003CC007F381203EF7F0C1203EF7F061203EF7FCF
:0403DC00010203EF28
:0A03F900AC03120365AF0402035BBE
:060305008B468A4789487F
:10030B00120365E4FDAB46AA47A9488D82758300AD
:0C031B00120003FF600612035B0D80E976
:0103270022B3
:0A022A00EF24FFFDEE34FFFC7F0A15
:080234008E428F438C448D457E
:10023C007F017E00E4FBEBC39545E5446480F874D4
:0E024C008098500AAC42AD431200300B80E89F
:01025A002281
:0402E1008A3F8B4085
:1002E500120365AA41EAFF7E00D3940074809480CE
:0F02F500400D12022AAC3FAD401203471A80E6BB
:0103040022D6
:040123008B828A83BE
:10012700120365C3E58364809480400D7F2B12031F
:100137005B85833585823680107F2D12035BC3E490
:100147009582F536E49583F535AA34EAFF7E00D328
:10015700940074809480400D12022AAC35AD36129B
:0501670003471A80E6C9
:01016C002270
:1003830075985053878053890F438920C28FD28E2B
:0D039300758BFD758DFDC2ABD2ACD2AF22D3
:080403008F993099FDC2992286
:1003A0005389F0438901C28DD28C758A18758CFCF3
:0703B000D2A9D2AFC2B922AD
:0201F500A90758
:1001F700E4FBFAAF037E007480A807088006CEA24E
:10020700E713CE13D8F8FFE9FDEF5D24FF92A1D2E3
:10021700A0C2A00BBB00010AEB64084A70D5D2A2AA
:02022700C2A271
:0102290022B2
:10032800EDF4F590A8077480088002C313D8FCFF89
:0F0338001201F57F017E001203B7E4FF0201F509
:08040B00C2A0C2A2E4F5902298
:0300000002009764
:0C009700787FE4F6D8FD7581480200DE99
:10000300BB010CE58229F582E5833AF583E02250B2
:1000130006E92582F8E622BBFE06E92582F8E222FC
:0D002300E58229F582E5833AF583E4932216
:10003000EF8DF0A4A8F0CF8CF0A428CE8DF0A42EE4
:02004000FE229E
:10004200BC000BBE0029EF8DF084FFADF022E4CCA2
:10005200F875F008EF2FFFEE33FEEC33FCEE9DEC6B
:10006200984005FCEE9DFE0FD5F0E9E4CEFD22EDB1
:10007200F8F5F0EE8420D21CFEADF075F008EF2FFB
:10008200FFED33FD4007985006D5F0F222C398FDEC
:050092000FD5F0EA2289
:1000A30002025BE493A3F8E493A34003F68001F216
:1000B30008DFF48029E493A3F85407240CC8C3335E
:1000C300C4540F4420C8834004F456800146F6DF2D
:1000D300E4800B010204081020408090028BE47E30
:1000E300019360BCA3FF543F30E509541FFEE49322
:1000F300A360010ECF54C025E060A840B8E493A3E9
:10010300FAE493A3F8E493A3C8C582C8CAC583CA13
:10011300F0A3C8C582C8CAC583CADFE9DEE780BECB
:0102B6000047
:00000001FF
