:0401ED00C2A180FE2D
:10019500EF1FAC0670011E4C600A7D027CEFDCFE91
:0401A500DDFC80EC11
:0101A9002233
:0601BE00C2A58F80D2A74C
:0801C4007F027EEFDEFEDFFC8E
:0101CC002210
:0A01D900C2A61201BEC2A70201C4B3
:10015900CFCDCFCECCCE1200427C007D0A12004218
:04016900ED2430FF52
:0A016D00D2A61201BEC2A70201C40F
:10017700AE07EEFB7A0064017004ED148009EB64AE
:0E018700024A7009ED243F4480FF1201D92284
:1001AA007F381201D97F0C1201D97F061201D97F3B
:0401BA00010201D964
:0A01E300AC03120177AF0402016DB6
:060136008B188A19891ADA
:10013C00120177E4FDAB18AA19A91A8D82758300F8
:0C014C00120003FF600612016D0D80E937
:010158002284
:0A00E100EF24FFFDEE34FFFC7F0A60
:0800EB008E148F158C168D1781
:1000F3007F017E00E4FBEBC39517E5166480F8747B
:0E0103008098500AAC14AD151200300B80E845
:0101110022CB
:040112008A118B12B1
:10011600120177AA13EAFF7E00D3940074809480BC
:0F012600400D1200E1AC11AD121201591A80E622
:0101350022A7
:040097008B828A834B
:10009B00120177C3E58364809480400D7F2B12019E
:1000AB006D85830D85820E80107F2D12016DC3E44B
:1000BB009582F50EE49583F50DAA0CEAFF7E00D32D
:1000CB00940074809480400D1200E1AC0DAD0E12C3
:0500DB0001591A80E646
:0100E00022FD
:030000000201CD2D
:0C01CD00787FE4F6D8FD75811A0201ED80
:10000300BB010CE58229F582E5833AF583E02250B2
:1000130006E92582F8E622BBFE06E92582F8E222FC
:0D002300E58229F582E5833AF583E4932216
:10003000EF8DF0A4A8F0CF8CF0A428CE8DF0A42EE4
:02004000FE229E
:10004200BC000BBE0029EF8DF084FFADF022E4CCA2
:10005200F875F008EF2FFFEE33FEEC33FCEE9DEC6B
:10006200984005FCEE9DFE0FD5F0E9E4CEFD22EDB1
:10007200F8F5F0EE8420D21CFEADF075F008EF2FFB
:10008200FFED33FD4007985006D5F0F222C398FDEC
:050092000FD5F0EA2289
:00000001FF
