:10009A00204A260000F859F8CBF930F994F9EDFA1C
:1000AA0046FA98FAE5FB2FFB74FBBAFBF3FC2DFC2E
:1000BA0064FC98FCC9FCF7FD23FD4CFD73FD97FD1C
:1000CA00BAFDDBFDF9FE17FE32FE4CFE64FE7CFE35
:1000DA0091FEA6FEB9FECCFEDDFEED00001C090D68
:1000EA00040D041404140416041604140812041249
:0B00FA0004110411040F040F040D0892
:1001060012015874092525F8E6F508052574092510
:1001160025F8E675F07DA4FFAEF012016F0525C245
:0C0126008C7F057E0012016FD28C80D708
:03000B00020132BD
:10013200C0E0C0D075D000C000C006E50825E024AC
:1001420026F8E6FE08E6F58AEEF58CB2A1D006D0D6
:0601520000D0D0D0E03225
:10016F00EF1FAC0670011E4C600A7D027CEFDCFEB7
:04017F00DDFC80EC37
:010183002259
:100158005389F0438901C28DD28C758A18758CFC3D
:07016800D2A9D2AFC2B922F7
:0300000002000EED
:0C000E00787FE4F6D8FD75816F02005584
:10001A00020106E493A3F8E493A34003F68001F2F5
:10002A0008DFF48029E493A3F85407240CC8C333E7
:10003A00C4540F4420C8834004F456800146F6DFB6
:10004A00E4800B010204081020408090009AE47EAC
:10005A00019360BCA3FF543F30E509541FFEE493AB
:10006A00A360010ECF54C025E060A840B8E493A372
:10007A00FAE493A3F8E493A3C8C582C8CAC583CA9D
:10008A00F0A3C8C582C8CAC583CADFE9DEE780BE55
:0101050000F9
:00000001FF
