:0200E100A9076D
:1000E300E4FBFAAF037E007480A807088006CEA263
:1000F300E713CE13D8F8FFE9FDEF5D24FF92A1D2F9
:10010300A0C2A00BBB00010AEB64084A70D5D2A2BF
:02011300C2A286
:0101150022C7
:100256008D90A8077480088002C313D8FCFF0200A3
:01026600E1B6
:07014700C2A0C2A2E4F59082
:10014E00E4F51BF51CAF1C7DF07C001202567FF40B
:10015E007E0112022D051CE51C7002051BC39408BE
:08016E00E51B940040DF80D87E
:10022D00EF1FAC0670011E4C600A7D027CEFDCFEF8
:04023D00DDFC80EC78
:01024100229A
:06026700C2A58F80D2A7A2
:08026D007F027EEFDEFEDFFCE4
:010275002266
:0A028200C2A6120267C2A702026DB5
:1001BD00CFCDCFCECCCE1200427C007D0A120042B4
:0401CD00ED2430FFEE
:0A01D100D2A6120267C2A702026D57
:1001DB00AE07EEFB7A0064017004ED148009EB644A
:0E01EB00024A7009ED243F4480FF1202822276
:100242007F381202827F0C1202827F061202827FA4
:040252000102028221
:0A028C00AC031201DBAF040201D144
:06019A008B188A19891A76
:1001A0001201DBE4FDAB18AA19A91A8D8275830030
:0C01B000120003FF60061201D10D80E96F
:0101BC002220
:0A011600EF24FFFDEE34FFFC7F0A2A
:080120008E148F158C168D174B
:100128007F017E00E4FBEBC39517E5166480F87445
:0E0138008098500AAC14AD151200300B80E810
:010146002296
:040176008A118B124D
:10017A001201DBAA13EAFF7E00D3940074809480F4
:0F018A00400D120116AC11AD121201BD1A80E624
:010199002243
:040097008B828A834B
:10009B001201DBC3E58364809480400D7F2B12013A
:1000AB00D185830D85820E80107F2D1201D1C3E483
:1000BB009582F50EE49583F50DAA0CEAFF7E00D32D
:1000CB00940074809480400D120116AC0DAD0E128D
:0500DB0001BD1A80E6E2
:0100E00022FD
:1001F90075985053878053890F438920C28FD28EB7
:0D020900758BFD758DFDC2ABD2ACD2AF225E
:080296008F993099FDC29922F5
:100216005389F0438901C28DD28C758A18758CFC7E
:07022600D2A9D2AFC2B92238
:0300000002027683
:0C027600787FE4F6D8FD75811C0201477A
:10000300BB010CE58229F582E5833AF583E02250B2
:1000130006E92582F8E622BBFE06E92582F8E222FC
:0D002300E58229F582E5833AF583E4932216
:10003000EF8DF0A4A8F0CF8CF0A428CE8DF0A42EE4
:02004000FE229E
:10004200BC000BBE0029EF8DF084FFADF022E4CCA2
:10005200F875F008EF2FFFEE33FEEC33FCEE9DEC6B
:10006200984005FCEE9DFE0FD5F0E9E4CEFD22EDB1
:10007200F8F5F0EE8420D21CFEADF075F008EF2FFB
:10008200FFED33FD4007985006D5F0F222C398FDEC
:050092000FD5F0EA2289
:00000001FF
