:0801C600020C00000208000019
:1001650012019A75A00112009A8E0A8F0BE50B45B4
:100175000A60F3E50B6401450A7005F50C750D0180
:10018500E50B6402450A7005F50C750D02E50B6477
:0501950004450A80D1C1
:03000B0002010BE4
:0B010B00C0E0C0D075D000C000C007ED
:10011600758A18758CFC0509E5097002050864E8FE
:100126007004E5086403702EF508F509E50D640111
:10013600450C700DAFA07801EF08800103D8FDF5DE
:10014600A0E50D6402450C700DAFA07801EF0880A4
:060156000123D8FDF5A015
:09015C00D007D000D0D0D0E03271
:10019A005389F0438901C28DD28C758A18758CFCFB
:0701AA00D2A9D2AFC2B922B5
:10009A00E4F50EF50F20B0167F14FE1201B130B050
:1000AA00FD7F147E001201B1750E00750F0120B19B
:1000BA00177F147E001201B130B1FD7F147E001249
:1000CA0001B1750E00750F0220B2177F147E00125F
:1000DA0001B130B2FD7F147E001201B1750E0075B8
:1000EA000F0320B3177F147E001201B130B3FD7FD6
:1000FA00147E001201B1750E00750F04AE0EAF0F1B
:01010A0022D2
:1001B100EF1FAC0670011E4C600A7D027CEFDCFE75
:0401C100DDFC80ECF5
:0101C5002217
:0300000002000EED
:0C000E00787FE4F6D8FD75810F020055E4
:10001A00020165E493A3F8E493A34003F68001F296
:10002A0008DFF48029E493A3F85407240CC8C333E7
:10003A00C4540F4420C8834004F456800146F6DFB6
:10004A00E4800B01020408102040809001C6E47E7F
:10005A00019360BCA3FF543F30E509541FFEE493AB
:10006A00A360010ECF54C025E060A840B8E493A372
:10007A00FAE493A3F8E493A3C8C582C8CAC583CA9D
:10008A00F0A3C8C582C8CAC583CADFE9DEE780BE55
:0101CE000030
:00000001FF
