:10008F00105800010002000400080010002000407A
:10009F00008020200800C000F900A400B0009900E3
:1000AF0092008200F8008000900088008300C60054
:1000BF00A10086008E202028003F0006005B004F25
:1000CF000066006D007D0007007F006F0077007CE9
:1000DF000039005E00790071104800000001000235
:0A00EF0000030004000500060007EE
:10012500EF1FAC0670011E4C600A7D027CEFDCFE01
:04013500DDFC80EC81
:0101390022A3
:10013A00EF25E02448F808E6F5A0ED25E02428F8A4
:05014A0008E6F580222B
:1000FA00E4FDFCFFFE12013A0F1201257D017C008E
:10010A007F017E0012013A1201257D027C007F02E6
:0B011A007E0012013A1F12012580D563
:03000000020003F8
:0C000300787FE4F6D8FD75816702004AA2
:10000F000200FAE493A3F8E493A34003F68001F20D
:10001F0008DFF48029E493A3F85407240CC8C333F2
:10002F00C4540F4420C8834004F456800146F6DFC1
:10003F00E4800B010204081020408090008FE47EC2
:10004F00019360BCA3FF543F30E509541FFEE493B6
:10005F00A360010ECF54C025E060A840B8E493A37D
:10006F00FAE493A3F8E493A3C8C582C8CAC583CAA8
:10007F00F0A3C8C582C8CAC583CADFE9DEE780BE60
:0100F9000006
:00000001FF
