:0C01EB00020E000002080000020A0000E2
:100184001201BF75A0011201138E0C8F0DE50D45F0
:100194000C60F3E50D6401450C700875A001F50EC3
:1001A400750F01E50D6402450C700875A080F50E0D
:0B01B400750F02E50D6404450C80CBC4
:03000B0002009A56
:04009A00C0E0C0D032
:10009E00758A18758CFC0509E5097002050864E877
:1000AE007004E50864037058F508F509E50F64015E
:1000BE00450E7022050BE50B7002050AE5A025E042
:1000CE00F5A0C3E50B9408E50A9400400975A0015C
:1000DE00750A00750B00E50F6402450E7022050BC4
:1000EE00E50B7002050AE5A0C313F5A0C3E50B945A
:1000FE0008E50A9400400975A080750A00750B008A
:05010E00D0D0D0E0326A
:1001BF005389F0438901C28DD28C758A18758CFCD6
:0701CF00D2A9D2AFC2B92290
:10011300E4F510F51120B0167F14FE1201D630B0AD
:10012300FD7F147E001201D675100075110120B1F8
:10013300177F147E001201D630B1FD7F147E0012AA
:1001430001D675100075110220B2177F147E0012BC
:1001530001D630B2FD7F147E001201D675100075F2
:10016300110320B3177F147E001201D630B3FD7F35
:10017300147E001201D6751000751104AE10AF1174
:010183002259
:1001D600EF1FAC0670011E4C600A7D027CEFDCFE50
:0401E600DDFC80ECD0
:0101EA0022F2
:0300000002000EED
:0C000E00787FE4F6D8FD758111020055E2
:10001A00020184E493A3F8E493A34003F68001F277
:10002A0008DFF48029E493A3F85407240CC8C333E7
:10003A00C4540F4420C8834004F456800146F6DFB6
:10004A00E4800B01020408102040809001EBE47E5A
:10005A00019360BCA3FF543F30E509541FFEE493AB
:10006A00A360010ECF54C025E060A840B8E493A372
:10007A00FAE493A3F8E493A3C8C582C8CAC583CA9D
:10008A00F0A3C8C582C8CAC583CADFE9DEE780BE55
:0101F7000007
:00000001FF
