:10016500E4F568F569AD69AC68AF69AE6812008FF2
:100175000569E56970020568D39407E568648094AC
:050185008040E280DB78
:10018A00EF1FAC0670011E4C600A7D027CEFDCFE9C
:04019A00DDFC80EC1C
:01019E00223E
:1000FA00105800010002000400080010002000400F
:10010A00008020200800C000F900A400B000990077
:10011A0092008200F8008000900088008300C600E8
:10012A00A10086008E202028003F0006005B004FB9
:10013A000066006D007D0007007F006F0077007C7D
:10014A000039005E007900711048000000010002C9
:0A015A000003000400050006000782
:10008F00EE7053EFB40800504D90009FF82828737E
:10009F000200B70200BB0200C30200C70200CF027A
:1000AF0000D30200DB0200DFC2A08002D2A0C2A1F7
:1000BF00C2A28022C2A08002D2A0D2A1C2A2801668
:1000CF00C2A08002D2A0C2A1D2A2800AC2A0800286
:1000DF00D2A0D2A1D2A2ED25E02428F808E6F5801F
:0B00EF007F017E0012018AE4F58022F0
:03000000020003F8
:0C000300787FE4F6D8FD75816902004AA0
:10000F00020165E493A3F8E493A34003F68001F2A1
:10001F0008DFF48029E493A3F85407240CC8C333F2
:10002F00C4540F4420C8834004F456800146F6DFC1
:10003F00E4800B01020408102040809000FAE47E57
:10004F00019360BCA3FF543F30E509541FFEE493B6
:10005F00A360010ECF54C025E060A840B8E493A37D
:10006F00FAE493A3F8E493A3C8C582C8CAC583CAA8
:10007F00F0A3C8C582C8CAC583CADFE9DEE780BE60
:01016400009A
:00000001FF
