:1001A7008080800000000000008080800000000048
:1001B700000080C000000000000000E00000000018
:0801C7000000007000000000C0
:08009700E4F518F51912030548
:10009F00E4F51AF51BAF1BE51B2519FDE51A3518FD
:1000AF00FC74A72DF58274013CF583E493FD7C006D
:1000BF00120216051BE51B7002051AC39408E51AF8
:1000CF00940040D174082519F519E43518F5187FF7
:1000DF00C87E001202A5D3E5199420E518940040BC
:0600EF00AFE4F518F5195D
:0200F50080A8E1
:1002A500EF1FAC0670011E4C600A7D027CEFDCFE80
:0402B500DDFC80EC00
:0102B9002222
:0602CE00C2A58F80D2A73B
:0802D4007F027EEFDEFEDFFC7D
:0102DC0022FF
:0A02E900C2A61202CEC2A70202D480
:10023500CFCDCFCECCCE1200427C007D0A1200423B
:04024500ED2430FF75
:0A024900D2A61202CEC2A70202D410
:10025300AE07EEFB7A0064017004ED148009EB64D1
:0E026300024A7009ED243F4480FF1202E92296
:1002BA007F381202E97F0C1202E97F061202E97FF7
:0402CA00010202E942
:0A02F300AC03120253AF04020249EB
:0601F3008B1C8A1D891E11
:1001F900120253E4FDAB1CAA1DA91E8D8275830052
:0C020900120003FF60061202490D80E99C
:0102150022C6
:0A017600EF24FFFDEE34FFFC7F0ACA
:080180008E148F158C168D17EB
:100188007F017E00E4FBEBC39517E5166480F874E5
:0E0198008098500AAC14AD151200300B80E8B0
:0101A6002236
:0401CF008A118B12F4
:1001D300120253AA13EAFF7E00D394007480948022
:0F01E300400D120176AC11AD121202351A80E6F2
:0101F20022EA
:0400F7008B828A83EB
:1000FB00120253C3E58364809480400D7F2B120260
:10010B004985830D85820E80107F2D120249C3E431
:10011B009582F50EE49583F50DAA0CEAFF7E00D3CC
:10012B00940074809480400D120176AC0DAD0E12CC
:05013B0002351A80E608
:01014000229C
:1002710075985053878053890F438920C28FD28E3E
:0D028100758BFD758DFDC2ABD2ACD2AF22E6
:0802FD008F993099FDC299228E
:10028E005389F0438901C28DD28C758A18758CFC06
:07029E00D2A9D2AFC2B922C0
:02014100A9070C
:10014300E4FBFAAF037E007480A807088006CEA202
:10015300E713CE13D8F8FFE9FDEF5D24FF92A1D298
:10016300A0C2A00BBB00010AEB64084A70D5D2A25F
:02017300C2A226
:010175002267
:10021600EDF4F590A8077480088002C313D8FCFF9C
:0F0226001201417F017E001202A5E4FF02014197
:08030500C2A0C2A2E4F590229F
:030000000202DD1C
:0C02DD00787FE4F6D8FD75811E020097C2
:10000300BB010CE58229F582E5833AF583E02250B2
:1000130006E92582F8E622BBFE06E92582F8E222FC
:0D002300E58229F582E5833AF583E4932216
:10003000EF8DF0A4A8F0CF8CF0A428CE8DF0A42EE4
:02004000FE229E
:10004200BC000BBE0029EF8DF084FFADF022E4CCA2
:10005200F875F008EF2FFFEE33FEEC33FCEE9DEC6B
:10006200984005FCEE9DFE0FD5F0E9E4CEFD22EDB1
:10007200F8F5F0EE8420D21CFEADF075F008EF2FFB
:10008200FFED33FD4007985006D5F0F222C398FDEC
:050092000FD5F0EA2289
:00000001FF
