:10008F0010080001000200040008001000200040CA
:10009F00008020201800C000F900A400B0009900D3
:1000AF0092008200F8008000900077007C003900F9
:0500BF005E00790071F4
:1000F400EF1FAC0670011E4C600A7D027CEFDCFE33
:04010400DDFC80ECB2
:0101080022D4
:1000C500E4F538F53975A080E53925E02418F808F8
:1000D500E6F5807FF47E011200F40539E5397002FA
:0F00E5000538D39409E5386480948040DB80D1DE
:03000000020003F8
:0C000300787FE4F6D8FD75813902004AD0
:10000F000200C5E493A3F8E493A34003F68001F242
:10001F0008DFF48029E493A3F85407240CC8C333F2
:10002F00C4540F4420C8834004F456800146F6DFC1
:10003F00E4800B010204081020408090008FE47EC2
:10004F00019360BCA3FF543F30E509541FFEE493B6
:10005F00A360010ECF54C025E060A840B8E493A37D
:10006F00FAE493A3F8E493A3C8C582C8CAC583CAA8
:10007F00F0A3C8C582C8CAC583CADFE9DEE780BE60
:0100C400003B
:00000001FF
